:1000000019C02BC02AC029C028C027C026C025C0BF
:1000100024C0A3C122C021C020C01FC01EC01DC05B
:100020001CC01BC01AC019C018C017C016C015C00C
:1000300014C013C011241FBECFEFD4E0DEBFCDBF6C
:1000400011E0A0E0B1E0E0E9F6E002C005900D9219
:10005000AE32B107D9F712D019C3D2CF1092B00087
:1000600085E08093B1001092B20081E0809370002F
:1000700087E087BB80E28093B6000895CF93DF933B
:10008000CDB7DEB7A0970FB6F894DEBF0FBECDBFD9
:10009000E5DF2FEF84E39CE0215080409040E1F7C2
:1000A00000C0000098E230E0C92E99833A8387E2CD
:1000B00020E0E82E8B832C8341E04D83192F9E8313
:1000C0003F83382F8887298782E08A878BE2682FD1
:1000D0008B871C868AE28D871E86D12CF12C0D81A0
:1000E00040E05A8570E090E082D20F2EF5E1AF2E0D
:1000F000F02DC980DA80EB80FC800D811E812F817C
:10010000388549855A856B857C858D859E852FD15F
:1001100086E0ECE1F1E0DE011F9601900D928A95F8
:10012000E1F786E0E2E2F1E0DE01559601900D9202
:100130008A95E1F786E0E8E2F1E0DE015B96019066
:100140000D928A95E1F778940F2EFCE19F2EF02D09
:10015000A12CC980DA80EB80FC800D811E812F816B
:10016000388549855A856B857C858D859E854DD1E1
:100170000F2EF0E0AF2EF1E0BF2EF02DC980DA8017
:10018000EB80FC800D811E812F81388549855A8541
:100190006B857C858D859E8585D1CE010F965C0112
:1001A000C980DA80EB80FC800D811E812F8138852B
:1001B00049855A856B857C858D859E8573D10F2EEB
:1001C000F7E0AF2EF1E0BF2EF02DC980DA80EB8092
:1001D000FC800D811E812F81388549855A856B856C
:1001E0007C858D859E855ED1CE0145965C01C9805A
:1001F000DA80EB80FC800D811E812F813885498556
:100200005A856B857C858D859E854CD10F2EF2E1BC
:10021000AF2EF1E0BF2EF02DC980DA80EB80FC809C
:100220000D811E812F81388549855A856B857C8596
:100230008D859E8537D1CE014B965C01C980DA80D1
:10024000EB80FC800D811E812F81388549855A8580
:100250006B857C858D859E8525D10F2EF8E2AF2E8E
:10026000F02DC980DA80EB80FC800D811E812F810A
:10027000388549855A856B857C858D859E85C5D059
:100280000F2EFBE5AF2EF02DC980DA80EB80FC80CD
:100290000D811E812F81388549855A856B857C8526
:1002A0008D859E8564D0B92C0F2EFDE3AF2EF02DE9
:1002B000C980DA80EB80FC800D811E812F8138851A
:1002C00049855A856B857C858D859E8550D0BA94ED
:1002D000B110EACF0F2EFEE3AF2EF02DC980DA80E9
:1002E000EB80FC800D811E812F81388549855A85E0
:1002F0006B857C858D859E853AD00F2EFFE4AF2ED1
:10030000F02DC980DA80EB80FC800D811E812F8169
:10031000388549855A856B857C858D859E8575D008
:100320000F2EFDE5AF2EF02DC980DA80EB80FC802A
:100330000D811E812F81388549855A856B857C8585
:100340008D859E8514D09FEF29E688E1915020404D
:100350008040E1F700C00000FBCE1F920F920FB665
:100360000F9211240F900FBE0F901F901895AF920F
:10037000CF92DF92EF92FF920F931F93CF93DF9371
:10038000CDB7DEB72E970FB6F894DEBF0FBECDBF48
:10039000C982DA82EB82FC820D831E832F83388729
:1003A00049875A876B877C878D879E87EB85FC857D
:1003B000A0828A85EE81FF81908180958923808348
:1003C0008D81E981FA81908180958923808382E003
:1003D0008A95F1F700C08D819081892B80838FE809
:1003E00091E00197F1F700C000002E960FB6F89447
:1003F000DEBF0FBECDBFDF91CF911F910F91FF9058
:10040000EF90DF90CF90AF900895AF92CF92DF92B0
:10041000EF92FF920F931F93CF93DF93CDB7DEB789
:100420002E970FB6F894DEBF0FBECDBFC982DA8219
:10043000EB82FC820D831E832F83388749875A877E
:100440006B877C878D879E87EB85FC85A0828A855C
:10045000EE81FF819081892B80838D81E981FA81F2
:10046000908180958923808382E08A95F1F700C08E
:100470008D819081892B80838FE891E00197F1F73E
:1004800000C000002E960FB6F894DEBF0FBECDBFA1
:10049000DF91CF911F910F91FF90EF90DF90CF9060
:1004A000AF9008958F929F92AF92BF92CF92DF92BA
:1004B000EF92FF920F931F93CF93DF93CDB7DEB7E9
:1004C0002E970FB6F894DEBF0FBECDBFC982DA8279
:1004D000EB82FC820D831E832F83388749875A87DE
:1004E0006B877C878D879E874501B12C14C0F401F2
:1004F000E80FF91FA080C980DA80EB80FC800D81B5
:100500001E812F81388549855A856B857C858D852F
:100510009E852DDFB3948B2D90E0F4010190002097
:10052000E9F73197E819F9098E179F0700F32E961E
:100530000FB6F894DEBF0FBECDBFDF91CF911F91F4
:100540000F91FF90EF90DF90CF90BF90AF909F9072
:100550008F9008953F924F925F926F927F928F9209
:100560009F92AF92BF92CF92DF92EF92FF920F9342
:100570001F93CF93DF93CDB7DEB72E970FB6F894C6
:10058000DEBF0FBECDBFC982DA82EB82FC820D8353
:100590001E832F83388749875A876B877C878D878F
:1005A0009E870F2EF0E5AF2EF02D2FDF2FEF80E787
:1005B00092E0215080409040E1F700C000002E966C
:1005C0000FB6F894DEBF0FBECDBFDF91CF911F9164
:1005D0000F91FF90EF90DF90CF90BF90AF909F90E2
:1005E0008F907F906F905F904F903F900895CF9243
:1005F000DF92EF92FF920F931F93CF93DF93CDB7CC
:10060000DEB72E970FB6F894DEBF0FBECDBFC982FE
:10061000DA82EB82FC820D831E832F833887498721
:100620005A876B877C878D879E878D81E981FA81C8
:100630009081892B80838D81EB81FC819081892B36
:1006400080838A85EE81FF819081892B80838A85D2
:10065000E885F9859081892B8083EB85FC85108264
:10066000ED85FE858FEF80838D859E8573DF2E96C9
:100670000FB6F894DEBF0FBECDBFDF91CF911F91B3
:100680000F91FF90EF90DF90CF900895F894FFCFF7
:1006900054696D653A20002053756E726973653A2E
:1006A00020002053756E7365743A200031333A335D
:0E06B000370031343A36330034323A343200F7
:00000001FF
